:100000000C943E000C945B000C945B000C945B0021
:100010000C945B000C945B000C945B000C945B00F4
:100020000C945B000C945B000C945B000C945B00E4
:100030000C945B000C945B000C945B000C945B00D4
:100040000C945B000C945B000C945B000C945B00C4
:100050000C945B00F50006011701280139014A01E3
:100060005B016C017D018E01B601C701D801E90178
:10007000FA010B021C022D023E024F0211241FBE88
:10008000CFE5D8E0DEBFCDBF10E0A0E6B0E0E6EF00
:10009000F9E002C005900D92A036B107D9F720E033
:1000A000A0E6B0E001C01D92A036B207E1F70E94C1
:1000B0005D000C94F9040C9400000E94A9000E94B9
:1000C000750080E00E9492008F3F29F080E00E943E
:1000D0009200C82F01C0C0E06C2F80E00E94780021
:1000E000CF5F8C2F0E94C600F7CF0E945504089561
:1000F000CF93DF93D82FC62F0E94640480E50E941F
:1001000092048D2F0E94B6048C2F0E94B6040E9488
:10011000EC048FE39CE90197F1F700C00000DF9148
:10012000CF910895CF93C82F0E94640480E50E9468
:1001300092048C2F0E94B6040E947B0480E50E94EA
:100140009F040E94CE04C82F0E94EC048C2FCF91F4
:10015000089561E08BE00E94770261E08CE00E94EC
:10016000770261E08DE00E94770261E08CE20E94FC
:10017000770261E08DE20E94770261E08EE20E94E8
:10018000770261E08FE20E94770208958F929F923A
:10019000AF92BF92CF92DF92EF92FF92CF93DF9315
:1001A0009DEC899FC12C1124C694C694C6942C2D15
:1001B000220F922F990F990F920F882E891AC2E35E
:1001C000D0E0D12C912C61E08CE00E94660360E0CD
:1001D0008BE00E9466038AE0C816D10408F0AEC026
:1001E000F601E65DFF4F0C94F30460E08CE20E94A0
:1001F000660360E08DE20E94660360E08EE20E948A
:10020000660360E08FE20E94660398C061E08CE2C2
:100210000E94660360E08DE20E94660360E08EE269
:100220000E94660360E08FE20E94660387C060E080
:100230008CE20E94660361E08DE20E94660360E04A
:100240008EE20E94660360E08FE20E94660376C041
:1002500061E08CE20E94660361E08DE20E94660329
:1002600060E08EE20E94660360E08FE20E94660317
:1002700065C060E08CE20E94660360E08DE20E944F
:10028000660361E08EE20E94660360E08FE20E94F6
:10029000660354C061E08CE20E94660360E08DE278
:1002A0000E94660361E08EE20E94660360E08FE2D6
:1002B0000E94660343C060E08CE20E94660361E036
:1002C0008DE20E94660361E08EE20E94660360E0B8
:1002D0008FE20E94660332C061E08CE20E946603F6
:1002E00061E08DE20E94660361E08EE20E94660397
:1002F00060E08FE20E94660321C060E08CE20E9411
:10030000660360E08DE20E94660360E08EE20E9478
:10031000660361E08FE20E94660310C061E08CE238
:100320000E94660360E08DE20E94660360E08EE258
:100330000E94660361E08FE20E9466038FE39CE9FE
:100340000197F1F700C0000060E08CE00E946603B6
:1003500061E08BE00E9466039AE08916910408F040
:10036000AEC0F401EC5CFF4F0C94F30460E08CE24F
:100370000E94660360E08DE20E94660360E08EE208
:100380000E94660360E08FE20E94660398C061E00D
:100390008CE20E94660360E08DE20E94660360E0EA
:1003A0008EE20E94660360E08FE20E94660387C0CF
:1003B00060E08CE20E94660361E08DE20E946603C9
:1003C00060E08EE20E94660360E08FE20E946603B6
:1003D00076C061E08CE20E94660361E08DE20E94DB
:1003E000660360E08EE20E94660360E08FE20E9496
:1003F000660365C060E08CE20E94660360E08DE207
:100400000E94660361E08EE20E94660360E08FE274
:100410000E94660354C061E08CE20E94660360E0C3
:100420008DE20E94660361E08EE20E94660360E056
:100430008FE20E94660343C060E08CE20E94660384
:1004400061E08DE20E94660361E08EE20E94660335
:1004500060E08FE20E94660332C061E08CE20E949D
:10046000660361E08DE20E94660361E08EE20E9415
:10047000660360E08FE20E94660321C060E08CE2C8
:100480000E94660360E08DE20E94660360E08EE2F7
:100490000E94660361E08FE20E94660310C061E083
:1004A0008CE20E94660360E08DE20E94660360E0D9
:1004B0008EE20E94660361E08FE20E9466038FE392
:1004C0009CE90197F1F700C0000060E08BE00E941A
:1004D0006603219709F077CEDF91CF91FF90EF90DF
:1004E000DF90CF90BF90AF909F908F9008959DEC3C
:1004F000899F912D1124969596959695662309F4DA
:1005000072C0613009F0E1C0923021F118F49130ED
:1005100039F008959330C1F1943009F44CC0089536
:1005200047B39DEC899F912D1124969596959695AC
:10053000990F292F220F220F920F891B21E030E003
:10054000B90102C0660F771F8A95E2F7CB01842BB1
:1005500087BB089541B39DEC899F912D11249295FD
:100560009F70990F990F292F220F220F920F891B2D
:1005700021E030E0B90102C0660F771F8A95E2F7EB
:10058000CB01842B81BB089544B399E8899F912DB9
:10059000112492959F707EE1979F8019112421E08C
:1005A00030E0B90102C0660F771F8A95E2F7CB01F0
:1005B000842B84BB08954AB39DEC899F912D11240F
:1005C00092959695977078E2979F8019112421E073
:1005D00030E0B90102C0660F771F8A95E2F7CB01C0
:1005E000842B8ABB0895923029F118F4913039F0A8
:1005F00008959330D1F1943009F44FC0089547B372
:100600009DEC899F912D1124969596959695990F1D
:10061000292F220F220F920F891B21E030E0B90110
:1006200002C0660F771F8A95E2F7CB01809584237D
:1006300087BB089541B39DEC899F912D112492951C
:100640009F70990F990F292F220F220F920F891B4C
:1006500021E030E0B90102C0660F771F8A95E2F70A
:10066000CB018095842381BB089544B399E8899F89
:10067000912D112492959F707EE1979F80191124EE
:1006800021E030E0B90102C0660F771F8A95E2F7DA
:10069000CB018095842384BB08954AB39DEC899F48
:1006A000912D112492959695977078E2979F8019D5
:1006B000112421E030E0B90102C0660F771F8A954E
:1006C000E2F7CB01809584238ABB08959DEC899F36
:1006D000912D1124969596959695662309F472C0EE
:1006E000613009F0E1C0923021F118F4913039F015
:1006F00008959330C1F1943009F44CC0089548B383
:100700009DEC899F912D1124969596959695990F1C
:10071000292F220F220F920F891B21E030E0B9010F
:1007200002C0660F771F8A95E2F7CB01842B88BB46
:10073000089542B39DEC899F912D112492959F704D
:10074000990F990F292F220F220F920F891B21E059
:1007500030E0B90102C0660F771F8A95E2F7CB013E
:10076000842B82BB089545B399E8899F912D11246C
:1007700092959F707EE1979F8019112421E030E0CF
:10078000B90102C0660F771F8A95E2F7CB01842B6F
:1007900085BB08954BB39DEC899F912D11249295B3
:1007A0009695977078E2979F8019112421E030E0A8
:1007B000B90102C0660F771F8A95E2F7CB01842B3F
:1007C0008BBB0895923029F118F4913039F00895D7
:1007D0009330D1F1943009F44FC0089548B39DECA3
:1007E000899F912D1124969596959695990F292F6D
:1007F000220F220F920F891B21E030E0B90102C0C5
:10080000660F771F8A95E2F7CB018095842388BB1A
:10081000089542B39DEC899F912D112492959F706C
:10082000990F990F292F220F220F920F891B21E078
:1008300030E0B90102C0660F771F8A95E2F7CB015D
:100840008095842382BB089545B399E8899F912DB3
:10085000112492959F707EE1979F8019112421E0C9
:1008600030E0B90102C0660F771F8A95E2F7CB012D
:100870008095842385BB08954BB39DEC899F912D72
:10088000112492959695977078E2979F801911247C
:1008900021E030E0B90102C0660F771F8A95E2F7C8
:1008A000CB01809584238BBB089588E480B986B7FB
:1008B000846086BF2FEF81EE94E02150804090400D
:1008C000E1F700C00000089586B7806286BF86B752
:1008D000806886BF06B607FEFDCF81B1887F88306D
:1008E000E1F72FEF81EE94E0215080409040E1F756
:1008F00000C00000089586B7806286BF86B7806812
:1009000086BF06B607FEFDCF81B1887F8031E1F753
:100910002FEF81EE94E0215080409040E1F700C03D
:1009200000000895880F83B986B7806886BF06B631
:1009300007FEFDCF81B1887F8831E1F70895880FE8
:10094000816083B986B7806886BF06B607FEFDCF93
:1009500081B1887F8034E1F72FEF81EE94E0215060
:1009600080409040E1F700C00000089583B986B749
:100970008F7D86BF86B7806886BF06B607FEFDCF2F
:1009800081B1887F8832E1F72FEF81EE94E021502A
:1009900080409040E1F700C00000089586B78F7D49
:1009A00086BF86B78F7E86BF86B7806486BF86B7D0
:1009B000806886BF06B607FEFDCF81B1887F80358F
:1009C000E1F72FEF81EE94E0215080409040E1F775
:1009D00000C0000083B1089586B7806186BF86B7E6
:1009E000806886BF0895EE0FFF1F0590F491E02DFB
:0609F0000994F894FFCF0A
:00000001FF
